{
  "_format": "hh-sol-artifact-1",
  "contractName": "MockLocalEntry",
  "sourceName": "contracts/tests/MockLocalEntry.sol",
  "abi": [
    {
      "inputs": [],
      "stateMutability": "nonpayable",
      "type": "constructor"
    },
    {
      "inputs": [],
      "name": "SubmitToLocalEntryFailed",
      "type": "error"
    },
    {
      "inputs": [
        {
          "internalType": "address",
          "name": "AAContract",
          "type": "address"
        }
      ],
      "name": "getPubkeys",
      "outputs": [
        {
          "internalType": "bytes[]",
          "name": "pubkeys",
          "type": "bytes[]"
        }
      ],
      "stateMutability": "view",
      "type": "function"
    },
    {
      "inputs": [
        {
          "internalType": "bytes32",
          "name": "txid",
          "type": "bytes32"
        }
      ],
      "name": "getTransaction",
      "outputs": [
        {
          "internalType": "address",
          "name": "AAContract",
          "type": "address"
        },
        {
          "components": [
            {
              "internalType": "bytes32",
              "name": "txid",
              "type": "bytes32"
            },
            {
              "internalType": "enum Types.TxType",
              "name": "txType",
              "type": "uint8"
            },
            {
              "internalType": "bytes",
              "name": "txData",
              "type": "bytes"
            },
            {
              "internalType": "bytes",
              "name": "signature",
              "type": "bytes"
            }
          ],
          "internalType": "struct SignedTx",
          "name": "signedTx",
          "type": "tuple"
        }
      ],
      "stateMutability": "view",
      "type": "function"
    },
    {
      "inputs": [
        {
          "internalType": "uint256",
          "name": "index",
          "type": "uint256"
        }
      ],
      "name": "getTransactionByIndex",
      "outputs": [
        {
          "internalType": "address",
          "name": "AAContract",
          "type": "address"
        },
        {
          "components": [
            {
              "internalType": "bytes32",
              "name": "txid",
              "type": "bytes32"
            },
            {
              "internalType": "enum Types.TxType",
              "name": "txType",
              "type": "uint8"
            },
            {
              "internalType": "bytes",
              "name": "txData",
              "type": "bytes"
            },
            {
              "internalType": "bytes",
              "name": "signature",
              "type": "bytes"
            }
          ],
          "internalType": "struct SignedTx",
          "name": "signedTx",
          "type": "tuple"
        }
      ],
      "stateMutability": "view",
      "type": "function"
    },
    {
      "inputs": [
        {
          "internalType": "bytes[]",
          "name": "pubkeys",
          "type": "bytes[]"
        },
        {
          "internalType": "bytes[]",
          "name": "signatures",
          "type": "bytes[]"
        }
      ],
      "name": "register",
      "outputs": [],
      "stateMutability": "nonpayable",
      "type": "function"
    },
    {
      "inputs": [
        {
          "internalType": "bool",
          "name": "ret",
          "type": "bool"
        }
      ],
      "name": "setSubmitRet",
      "outputs": [],
      "stateMutability": "nonpayable",
      "type": "function"
    },
    {
      "inputs": [],
      "name": "submitRet",
      "outputs": [
        {
          "internalType": "bool",
          "name": "",
          "type": "bool"
        }
      ],
      "stateMutability": "view",
      "type": "function"
    },
    {
      "inputs": [
        {
          "components": [
            {
              "internalType": "bytes32",
              "name": "txid",
              "type": "bytes32"
            },
            {
              "internalType": "enum Types.TxType",
              "name": "txType",
              "type": "uint8"
            },
            {
              "internalType": "bytes",
              "name": "txData",
              "type": "bytes"
            },
            {
              "internalType": "bytes",
              "name": "signature",
              "type": "bytes"
            }
          ],
          "internalType": "struct SignedTx",
          "name": "signedTx",
          "type": "tuple"
        }
      ],
      "name": "submitTx",
      "outputs": [],
      "stateMutability": "nonpayable",
      "type": "function"
    }
  ],
  "bytecode": "0x608060405234801561001057600080fd5b5060016000806101000a81548160ff0219169083151502179055506108788061003a6000396000f3fe608060405234801561001057600080fd5b506004361061007d5760003560e01c806380acc7441161005b57806380acc744146100ed578063869152e71461011d57806393a224bf1461014e578063f88167511461016a5761007d565b80634aae13ca1461008257806362abf9d1146100b35780636f482c3c146100d1575b600080fd5b61009c600480360381019061009791906102a2565b610186565b6040516100aa929190610490565b60405180910390f35b6100bb610195565b6040516100c891906104db565b60405180910390f35b6100eb60048036038101906100e6919061055b565b6101a6565b005b61010760048036038101906101029190610608565b6101ac565b60405161011491906106f7565b60405180910390f35b6101376004803603810190610132919061074f565b6101b3565b604051610145929190610490565b60405180910390f35b610168600480360381019061016391906107a8565b6101c2565b005b610184600480360381019061017f91906107f9565b6101de565b005b6000610190610225565b915091565b60008054906101000a900460ff1681565b50505050565b6060919050565b60006101bd610225565b915091565b806000806101000a81548160ff02191690831515021790555050565b60008054906101000a900460ff16610222576040517f9c34ab7700000000000000000000000000000000000000000000000000000000815260040160405180910390fd5b50565b6040518060800160405280600080191681526020016000600281111561024e5761024d61031f565b5b815260200160608152602001606081525090565b600080fd5b600080fd5b6000819050919050565b61027f8161026c565b811461028a57600080fd5b50565b60008135905061029c81610276565b92915050565b6000602082840312156102b8576102b7610262565b5b60006102c68482850161028d565b91505092915050565b600073ffffffffffffffffffffffffffffffffffffffff82169050919050565b60006102fa826102cf565b9050919050565b61030a816102ef565b82525050565b6103198161026c565b82525050565b7f4e487b7100000000000000000000000000000000000000000000000000000000600052602160045260246000fd5b6003811061035f5761035e61031f565b5b50565b60008190506103708261034e565b919050565b600061038082610362565b9050919050565b61039081610375565b82525050565b600081519050919050565b600082825260208201905092915050565b60005b838110156103d05780820151818401526020810190506103b5565b60008484015250505050565b6000601f19601f8301169050919050565b60006103f882610396565b61040281856103a1565b93506104128185602086016103b2565b61041b816103dc565b840191505092915050565b600060808301600083015161043e6000860182610310565b5060208301516104516020860182610387565b506040830151848203604086015261046982826103ed565b9150506060830151848203606086015261048382826103ed565b9150508091505092915050565b60006040820190506104a56000830185610301565b81810360208301526104b78184610426565b90509392505050565b60008115159050919050565b6104d5816104c0565b82525050565b60006020820190506104f060008301846104cc565b92915050565b600080fd5b600080fd5b600080fd5b60008083601f84011261051b5761051a6104f6565b5b8235905067ffffffffffffffff811115610538576105376104fb565b5b60208301915083602082028301111561055457610553610500565b5b9250929050565b6000806000806040858703121561057557610574610262565b5b600085013567ffffffffffffffff81111561059357610592610267565b5b61059f87828801610505565b9450945050602085013567ffffffffffffffff8111156105c2576105c1610267565b5b6105ce87828801610505565b925092505092959194509250565b6105e5816102ef565b81146105f057600080fd5b50565b600081359050610602816105dc565b92915050565b60006020828403121561061e5761061d610262565b5b600061062c848285016105f3565b91505092915050565b600081519050919050565b600082825260208201905092915050565b6000819050602082019050919050565b600061066d83836103ed565b905092915050565b6000602082019050919050565b600061068d82610635565b6106978185610640565b9350836020820285016106a985610651565b8060005b858110156106e557848403895281516106c68582610661565b94506106d183610675565b925060208a019950506001810190506106ad565b50829750879550505050505092915050565b600060208201905081810360008301526107118184610682565b905092915050565b6000819050919050565b61072c81610719565b811461073757600080fd5b50565b60008135905061074981610723565b92915050565b60006020828403121561076557610764610262565b5b60006107738482850161073a565b91505092915050565b610785816104c0565b811461079057600080fd5b50565b6000813590506107a28161077c565b92915050565b6000602082840312156107be576107bd610262565b5b60006107cc84828501610793565b91505092915050565b600080fd5b6000608082840312156107f0576107ef6107d5565b5b81905092915050565b60006020828403121561080f5761080e610262565b5b600082013567ffffffffffffffff81111561082d5761082c610267565b5b610839848285016107da565b9150509291505056fea26469706673582212207c7a92b9c785bb5406a5aa60f5fbf37eb7fae1cea5c7691ae40cebdb71f8cedb64736f6c63430008180033",
  "linkReferences": {},
  "deployedLinkReferences": {}
}