{
  "_format": "hh-sol-artifact-1",
  "contractName": "OmniverseAABaseTest",
  "sourceName": "contracts/tests/OmniverseAABaseTest.sol",
  "abi": [
    {
      "inputs": [
        {
          "internalType": "bytes",
          "name": "uncompressedPublicKey",
          "type": "bytes"
        },
        {
          "components": [
            {
              "internalType": "bytes32",
              "name": "omniAddress",
              "type": "bytes32"
            },
            {
              "internalType": "bytes32",
              "name": "assetId",
              "type": "bytes32"
            },
            {
              "internalType": "bytes32",
              "name": "txid",
              "type": "bytes32"
            },
            {
              "internalType": "uint64",
              "name": "index",
              "type": "uint64"
            },
            {
              "internalType": "uint128",
              "name": "amount",
              "type": "uint128"
            }
          ],
          "internalType": "struct Types.UTXO[]",
          "name": "utxos",
          "type": "tuple[]"
        },
        {
          "internalType": "address",
          "name": "_poseidon",
          "type": "address"
        },
        {
          "internalType": "address",
          "name": "_eip712",
          "type": "address"
        }
      ],
      "stateMutability": "nonpayable",
      "type": "constructor"
    },
    {
      "inputs": [],
      "name": "GasTokenCanNotBeMinted",
      "type": "error"
    },
    {
      "inputs": [],
      "name": "OnDeployNotImplemented",
      "type": "error"
    },
    {
      "inputs": [],
      "name": "OnMintNotImplemented",
      "type": "error"
    },
    {
      "inputs": [],
      "name": "OnTransferNotImplemented",
      "type": "error"
    },
    {
      "inputs": [
        {
          "internalType": "address",
          "name": "sender",
          "type": "address"
        }
      ],
      "name": "SenderNotRegistered",
      "type": "error"
    },
    {
      "inputs": [
        {
          "internalType": "uint256",
          "name": "nameLength",
          "type": "uint256"
        }
      ],
      "name": "TokenNameLengthExceedLimit",
      "type": "error"
    },
    {
      "inputs": [
        {
          "internalType": "bytes32",
          "name": "assetId",
          "type": "bytes32"
        }
      ],
      "name": "TokenOfAAContractNotEnough",
      "type": "error"
    },
    {
      "inputs": [
        {
          "internalType": "uint256",
          "name": "expected",
          "type": "uint256"
        },
        {
          "internalType": "uint256",
          "name": "submitted",
          "type": "uint256"
        }
      ],
      "name": "TransactionIndexNotMatch",
      "type": "error"
    },
    {
      "inputs": [
        {
          "internalType": "uint256",
          "name": "txIndex",
          "type": "uint256"
        }
      ],
      "name": "TransactionNotExists",
      "type": "error"
    },
    {
      "inputs": [
        {
          "internalType": "uint256",
          "name": "number",
          "type": "uint256"
        }
      ],
      "name": "UTXONumberExceedLimit",
      "type": "error"
    },
    {
      "inputs": [
        {
          "components": [
            {
              "internalType": "bytes8",
              "name": "salt",
              "type": "bytes8"
            },
            {
              "internalType": "string",
              "name": "name",
              "type": "string"
            },
            {
              "internalType": "bytes32",
              "name": "deployer",
              "type": "bytes32"
            },
            {
              "internalType": "uint128",
              "name": "totalSupply",
              "type": "uint128"
            },
            {
              "internalType": "uint128",
              "name": "limit",
              "type": "uint128"
            },
            {
              "internalType": "uint128",
              "name": "price",
              "type": "uint128"
            }
          ],
          "internalType": "struct Types.Metadata",
          "name": "metadata",
          "type": "tuple"
        }
      ],
      "name": "deploy",
      "outputs": [],
      "stateMutability": "nonpayable",
      "type": "function"
    },
    {
      "inputs": [],
      "name": "getPubkey",
      "outputs": [
        {
          "internalType": "bytes32",
          "name": "publicKey",
          "type": "bytes32"
        }
      ],
      "stateMutability": "view",
      "type": "function"
    },
    {
      "inputs": [
        {
          "internalType": "bytes32",
          "name": "assetId",
          "type": "bytes32"
        }
      ],
      "name": "getUTXOs",
      "outputs": [
        {
          "components": [
            {
              "internalType": "bytes32",
              "name": "omniAddress",
              "type": "bytes32"
            },
            {
              "internalType": "bytes32",
              "name": "assetId",
              "type": "bytes32"
            },
            {
              "internalType": "bytes32",
              "name": "txid",
              "type": "bytes32"
            },
            {
              "internalType": "uint64",
              "name": "index",
              "type": "uint64"
            },
            {
              "internalType": "uint128",
              "name": "amount",
              "type": "uint128"
            }
          ],
          "internalType": "struct Types.UTXO[]",
          "name": "UTXOs",
          "type": "tuple[]"
        }
      ],
      "stateMutability": "view",
      "type": "function"
    },
    {
      "inputs": [],
      "name": "getUnsignedTx",
      "outputs": [
        {
          "internalType": "uint256",
          "name": "txIndex",
          "type": "uint256"
        },
        {
          "components": [
            {
              "internalType": "bytes32",
              "name": "txid",
              "type": "bytes32"
            },
            {
              "components": [
                {
                  "internalType": "enum Types.TxType",
                  "name": "txType",
                  "type": "uint8"
                },
                {
                  "internalType": "bytes",
                  "name": "txData",
                  "type": "bytes"
                }
              ],
              "internalType": "struct OmniverseTx",
              "name": "otx",
              "type": "tuple"
            }
          ],
          "internalType": "struct OmniverseTxWithTxid",
          "name": "unsignedTx",
          "type": "tuple"
        }
      ],
      "stateMutability": "view",
      "type": "function"
    },
    {
      "inputs": [
        {
          "components": [
            {
              "internalType": "enum Types.TxType",
              "name": "txType",
              "type": "uint8"
            },
            {
              "internalType": "bytes",
              "name": "txData",
              "type": "bytes"
            }
          ],
          "internalType": "struct OmniverseTx",
          "name": "omniTx",
          "type": "tuple"
        },
        {
          "internalType": "bytes32[]",
          "name": "merkleProof",
          "type": "bytes32[]"
        },
        {
          "internalType": "bytes",
          "name": "signerPubkey",
          "type": "bytes"
        },
        {
          "internalType": "bytes",
          "name": "customData",
          "type": "bytes"
        }
      ],
      "name": "handleOmniverseTx",
      "outputs": [],
      "stateMutability": "nonpayable",
      "type": "function"
    },
    {
      "inputs": [
        {
          "internalType": "bytes32",
          "name": "assetId",
          "type": "bytes32"
        },
        {
          "components": [
            {
              "internalType": "bytes32",
              "name": "omniAddress",
              "type": "bytes32"
            },
            {
              "internalType": "uint128",
              "name": "amount",
              "type": "uint128"
            }
          ],
          "internalType": "struct Types.Output[]",
          "name": "outputs",
          "type": "tuple[]"
        }
      ],
      "name": "mint",
      "outputs": [],
      "stateMutability": "nonpayable",
      "type": "function"
    },
    {
      "inputs": [
        {
          "internalType": "address",
          "name": "_localEntry",
          "type": "address"
        }
      ],
      "name": "setLocalEntry",
      "outputs": [],
      "stateMutability": "nonpayable",
      "type": "function"
    },
    {
      "inputs": [
        {
          "internalType": "uint256",
          "name": "txIndex",
          "type": "uint256"
        },
        {
          "internalType": "bytes",
          "name": "signature",
          "type": "bytes"
        }
      ],
      "name": "submitTx",
      "outputs": [],
      "stateMutability": "nonpayable",
      "type": "function"
    },
    {
      "inputs": [
        {
          "internalType": "bytes32",
          "name": "txid",
          "type": "bytes32"
        },
        {
          "internalType": "enum Types.TxType",
          "name": "txType",
          "type": "uint8"
        },
        {
          "internalType": "bytes",
          "name": "txData",
          "type": "bytes"
        }
      ],
      "name": "testAddTx",
      "outputs": [],
      "stateMutability": "nonpayable",
      "type": "function"
    },
    {
      "inputs": [
        {
          "internalType": "uint256",
          "name": "txIndex",
          "type": "uint256"
        },
        {
          "internalType": "bytes",
          "name": "signature",
          "type": "bytes"
        }
      ],
      "name": "testSubmitTx",
      "outputs": [],
      "stateMutability": "nonpayable",
      "type": "function"
    },
    {
      "inputs": [
        {
          "internalType": "bytes32",
          "name": "assetId",
          "type": "bytes32"
        },
        {
          "components": [
            {
              "internalType": "bytes32",
              "name": "omniAddress",
              "type": "bytes32"
            },
            {
              "internalType": "uint128",
              "name": "amount",
              "type": "uint128"
            }
          ],
          "internalType": "struct Types.Output[]",
          "name": "outputs",
          "type": "tuple[]"
        }
      ],
      "name": "transfer",
      "outputs": [],
      "stateMutability": "nonpayable",
      "type": "function"
    },
    {
      "inputs": [
        {
          "components": [
            {
              "components": [
                {
                  "internalType": "bytes32",
                  "name": "assetId",
                  "type": "bytes32"
                },
                {
                  "internalType": "bytes32",
                  "name": "receiver",
                  "type": "bytes32"
                },
                {
                  "internalType": "uint128",
                  "name": "amount",
                  "type": "uint128"
                }
              ],
              "internalType": "struct Types.FeeConfig",
              "name": "feeConfig",
              "type": "tuple"
            },
            {
              "internalType": "uint256",
              "name": "maxTxUTXO",
              "type": "uint256"
            },
            {
              "internalType": "uint8",
              "name": "decimals",
              "type": "uint8"
            },
            {
              "internalType": "address",
              "name": "stateKeeper",
              "type": "address"
            },
            {
              "internalType": "address",
              "name": "localEntry",
              "type": "address"
            }
          ],
          "internalType": "struct Types.SystemConfig",
          "name": "_sysConfig",
          "type": "tuple"
        }
      ],
      "name": "updateSystemConfig",
      "outputs": [],
      "stateMutability": "nonpayable",
      "type": "function"
    }
  ],
  "bytecode": "0x60806040523480156200001157600080fd5b5060405162005f7f38038062005f7f8339818101604052810190620000379190620009c6565b8383838381600560006101000a81548173ffffffffffffffffffffffffffffffffffffffff021916908373ffffffffffffffffffffffffffffffffffffffff16021790555080600660006101000a81548173ffffffffffffffffffffffffffffffffffffffff021916908373ffffffffffffffffffffffffffffffffffffffff16021790555060006020850151905080600281905550620000de85620003e960201b60201c565b600360006101000a81548173ffffffffffffffffffffffffffffffffffffffff021916908373ffffffffffffffffffffffffffffffffffffffff16021790555060005b84518110156200021357600085828151811062000143576200014262000a76565b5b60200260200101516040015186838151811062000165576200016462000a76565b5b6020026020010151606001516040516020016200018492919062000b06565b6040516020818303038152906040528051906020012090506200020381878481518110620001b757620001b662000a76565b5b6020026020010151600460008a8781518110620001d957620001d862000a76565b5b60200260200101516020015181526020019081526020016000206200040260201b9092919060201c565b5050808060010191505062000121565b506040518060a0016040528060405180606001604052806000801b81526020017f12345678123456781234567812345678123456781234567812345678123456788152602001600a6fffffffffffffffffffffffffffffffff16815250815260200160648152602001601260ff168152602001600073ffffffffffffffffffffffffffffffffffffffff168152602001600073ffffffffffffffffffffffffffffffffffffffff168152506007600082015181600001600082015181600001556020820151816001015560408201518160020160006101000a8154816fffffffffffffffffffffffffffffffff02191690836fffffffffffffffffffffffffffffffff16021790555050506020820151816003015560408201518160040160006101000a81548160ff021916908360ff16021790555060608201518160040160016101000a81548173ffffffffffffffffffffffffffffffffffffffff021916908373ffffffffffffffffffffffffffffffffffffffff16021790555060808201518160050160006101000a81548173ffffffffffffffffffffffffffffffffffffffff021916908373ffffffffffffffffffffffffffffffffffffffff16021790555090505050505050505050505062000b36565b600080828051906020012090508060001c915050919050565b60008184600201600085815260200190815260200160002060008201518160000155602082015181600101556040820151816002015560608201518160030160006101000a81548167ffffffffffffffff021916908367ffffffffffffffff16021790555060808201518160030160086101000a8154816fffffffffffffffffffffffffffffffff02191690836fffffffffffffffffffffffffffffffff160217905550905050620004c18385600001620004ca60201b90919060201c565b90509392505050565b6000620004e18360000183620004e960201b60201c565b905092915050565b6000620004fd83836200056360201b60201c565b620005585782600001829080600181540180825580915050600190039060005260206000200160009091909190915055826000018054905083600101600084815260200190815260200160002081905550600190506200055d565b600090505b92915050565b600080836001016000848152602001908152602001600020541415905092915050565b6000604051905090565b600080fd5b600080fd5b600080fd5b600080fd5b6000601f19601f8301169050919050565b7f4e487b7100000000000000000000000000000000000000000000000000000000600052604160045260246000fd5b620005ef82620005a4565b810181811067ffffffffffffffff82111715620006115762000610620005b5565b5b80604052505050565b60006200062662000586565b9050620006348282620005e4565b919050565b600067ffffffffffffffff821115620006575762000656620005b5565b5b6200066282620005a4565b9050602081019050919050565b60005b838110156200068f57808201518184015260208101905062000672565b60008484015250505050565b6000620006b2620006ac8462000639565b6200061a565b905082815260208101848484011115620006d157620006d06200059f565b5b620006de8482856200066f565b509392505050565b600082601f830112620006fe57620006fd6200059a565b5b8151620007108482602086016200069b565b91505092915050565b600067ffffffffffffffff821115620007375762000736620005b5565b5b602082029050602081019050919050565b600080fd5b600080fd5b6000819050919050565b620007678162000752565b81146200077357600080fd5b50565b60008151905062000787816200075c565b92915050565b600067ffffffffffffffff82169050919050565b620007ac816200078d565b8114620007b857600080fd5b50565b600081519050620007cc81620007a1565b92915050565b60006fffffffffffffffffffffffffffffffff82169050919050565b620007f981620007d2565b81146200080557600080fd5b50565b6000815190506200081981620007ee565b92915050565b600060a082840312156200083857620008376200074d565b5b6200084460a06200061a565b90506000620008568482850162000776565b60008301525060206200086c8482850162000776565b6020830152506040620008828482850162000776565b60408301525060606200089884828501620007bb565b6060830152506080620008ae8482850162000808565b60808301525092915050565b6000620008d1620008cb8462000719565b6200061a565b90508083825260208201905060a08402830185811115620008f757620008f662000748565b5b835b818110156200092457806200090f88826200081f565b84526020840193505060a081019050620008f9565b5050509392505050565b600082601f8301126200094657620009456200059a565b5b815162000958848260208601620008ba565b91505092915050565b600073ffffffffffffffffffffffffffffffffffffffff82169050919050565b60006200098e8262000961565b9050919050565b620009a08162000981565b8114620009ac57600080fd5b50565b600081519050620009c08162000995565b92915050565b60008060008060808587031215620009e357620009e262000590565b5b600085015167ffffffffffffffff81111562000a045762000a0362000595565b5b62000a1287828801620006e6565b945050602085015167ffffffffffffffff81111562000a365762000a3562000595565b5b62000a44878288016200092e565b935050604062000a5787828801620009af565b925050606062000a6a87828801620009af565b91505092959194509250565b7f4e487b7100000000000000000000000000000000000000000000000000000000600052603260045260246000fd5b6000819050919050565b62000ac462000abe8262000752565b62000aa5565b82525050565b60008160c01b9050919050565b600062000ae48262000aca565b9050919050565b62000b0062000afa826200078d565b62000ad7565b82525050565b600062000b14828562000aaf565b60208201915062000b26828462000aeb565b6008820191508190509392505050565b6154398062000b466000396000f3fe608060405234801561001057600080fd5b50600436106100b45760003560e01c8063a9a894f811610071578063a9a894f814610177578063b595b46014610196578063c46200be146101b2578063cec771fb146101ce578063f68ee3f0146101ea578063ff668cc614610206576100b4565b806302f0005b146100b9578063063cd44f146100d557806336d1d0dc146100f35780633a68899d146101235780635404dc9d1461013f5780636dec87c71461015b575b600080fd5b6100d360048036038101906100ce919061336e565b610222565b005b6100dd61032f565b6040516100ea91906133f1565b60405180910390f35b61010d6004803603810190610108919061340c565b610339565b60405161011a91906135ad565b60405180910390f35b61013d600480360381019061013891906135f3565b610408565b005b61015960048036038101906101549190613676565b61041d565b005b6101756004803603810190610170919061374b565b61048b565b005b61017f610494565b60405161018d9291906139ca565b60405180910390f35b6101b060048036038101906101ab9190613a19565b6105d3565b005b6101cc60048036038101906101c79190613676565b6105f1565b005b6101e860048036038101906101e39190613a8e565b61065f565b005b61020460048036038101906101ff9190613a8e565b610978565b005b610220600480360381019061021b9190613b4c565b610c91565b005b60006040518060400160405280868152602001604051806040016040528087600281111561025357610252613849565b5b815260200186868080601f016020809104026020016040519081016040528093929190818152602001838380828437600081840152601f19601f8201169050808301925050505050505081525081525090806001815401808255809150506001900390600052602060002090600302016000909190919091506000820151816000015560208201518160010160008201518160000160006101000a81548160ff0219169083600281111561030a57610309613849565b5b021790555060208201518160010190816103249190613db4565b505050505050505050565b6000600254905090565b6060600060046000848152602001908152602001600020905061035b81610cd8565b67ffffffffffffffff81111561037457610373613b79565b5b6040519080825280602002602001820160405280156103ad57816020015b61039a61305b565b8152602001906001900390816103925790505b50915060005b82518110156104015760006103d18284610ced90919063ffffffff16565b915050808483815181106103e8576103e7613e86565b5b60200260200101819052505080806001019150506103b3565b5050919050565b8060078181610417919061433a565b90505050565b600080610480858585808060200260200160405190810160405280939291908181526020016000905b82821015610476578484839050604002018036038101906104679190614403565b81526020019060010190610446565b5050505050610ddb565b915091505050505050565b50505050505050565b600061049e6130af565b60008054905060015410156105cf5760015491506000600154815481106104c8576104c7613e86565b5b906000526020600020906003020160405180604001604052908160008201548152602001600182016040518060400160405290816000820160009054906101000a900460ff1660028111156105205761051f613849565b5b600281111561053257610531613849565b5b815260200160018201805461054690613bd7565b80601f016020809104026020016040519081016040528092919081815260200182805461057290613bd7565b80156105bf5780601f10610594576101008083540402835291602001916105bf565b820191906000526020600020905b8154815290600101906020018083116105a257829003601f168201915b5050505050815250508152505090505b9091565b6000806105e8836105e3906145f9565b611215565b91509150505050565b600080610654858585808060200260200160405190810160405280939291908181526020016000905b8282101561064a5784848390506040020180360381019061063b9190614403565b8152602001906001019061061a565b50505050506114d2565b915091505050505050565b3373ffffffffffffffffffffffffffffffffffffffff16600360009054906101000a900473ffffffffffffffffffffffffffffffffffffffff1673ffffffffffffffffffffffffffffffffffffffff16146106f157336040517fb9ab3b7d0000000000000000000000000000000000000000000000000000000081526004016106e8919061461b565b60405180910390fd5b6000805490506001541061073c57826040517f78ffb1920000000000000000000000000000000000000000000000000000000081526004016107339190614636565b60405180910390fd5b600154831461078657600154836040517fa68e2f4c00000000000000000000000000000000000000000000000000000000815260040161077d929190614651565b60405180910390fd5b6000806001548154811061079d5761079c613e86565b5b90600052602060002090600302019050600760050160009054906101000a900473ffffffffffffffffffffffffffffffffffffffff1673ffffffffffffffffffffffffffffffffffffffff1663f88167516040518060800160405280846000015481526020018460010160000160009054906101000a900460ff16600281111561082a57610829613849565b5b815260200184600101600101805461084190613bd7565b80601f016020809104026020016040519081016040528092919081815260200182805461086d90613bd7565b80156108ba5780601f1061088f576101008083540402835291602001916108ba565b820191906000526020600020905b81548152906001019060200180831161089d57829003601f168201915b5050505050815260200186868080601f016020809104026020016040519081016040528093929190818152602001838380828437600081840152601f19601f820116905080830192505050505050508152506040518263ffffffff1660e01b815260040161092891906146e4565b600060405180830381600087803b15801561094257600080fd5b505af1158015610956573d6000803e3d6000fd5b505050506001600081548092919061096d90614735565b919050555050505050565b3373ffffffffffffffffffffffffffffffffffffffff16600360009054906101000a900473ffffffffffffffffffffffffffffffffffffffff1673ffffffffffffffffffffffffffffffffffffffff1614610a0a57336040517fb9ab3b7d000000000000000000000000000000000000000000000000000000008152600401610a01919061461b565b60405180910390fd5b60008054905060015410610a5557826040517f78ffb192000000000000000000000000000000000000000000000000000000008152600401610a4c9190614636565b60405180910390fd5b6001548314610a9f57600154836040517fa68e2f4c000000000000000000000000000000000000000000000000000000008152600401610a96929190614651565b60405180910390fd5b60008060015481548110610ab657610ab5613e86565b5b90600052602060002090600302019050600760050160009054906101000a900473ffffffffffffffffffffffffffffffffffffffff1673ffffffffffffffffffffffffffffffffffffffff1663f88167516040518060800160405280846000015481526020018460010160000160009054906101000a900460ff166002811115610b4357610b42613849565b5b8152602001846001016001018054610b5a90613bd7565b80601f0160208091040260200160405190810160405280929190818152602001828054610b8690613bd7565b8015610bd35780601f10610ba857610100808354040283529160200191610bd3565b820191906000526020600020905b815481529060010190602001808311610bb657829003601f168201915b5050505050815260200186868080601f016020809104026020016040519081016040528093929190818152602001838380828437600081840152601f19601f820116905080830192505050505050508152506040518263ffffffff1660e01b8152600401610c4191906146e4565b600060405180830381600087803b158015610c5b57600080fd5b505af1158015610c6f573d6000803e3d6000fd5b5050505060016000815480929190610c8690614735565b919050555050505050565b80600760050160006101000a81548173ffffffffffffffffffffffffffffffffffffffff021916908373ffffffffffffffffffffffffffffffffffffffff16021790555050565b6000610ce6826000016117fd565b9050919050565b6000610cf761305b565b6000610d0f848660000161181290919063ffffffff16565b905080856002016000838152602001908152602001600020806040518060a00160405290816000820154815260200160018201548152602001600282015481526020016003820160009054906101000a900467ffffffffffffffff1667ffffffffffffffff1667ffffffffffffffff1681526020016003820160089054906101000a90046fffffffffffffffffffffffffffffffff166fffffffffffffffffffffffffffffffff166fffffffffffffffffffffffffffffffff1681525050905092509250509250929050565b6000610de56130d2565b60006007600001600001548503610f7957600080610e0286611829565b915091506040518060c001604052808881526020016040518060400160405280600281526020017f30780000000000000000000000000000000000000000000000000000000000008152508152602001600067ffffffffffffffff811115610e6d57610e6c613b79565b5b604051908082528060200260200182016040528015610ea657816020015b610e9361310b565b815260200190600190039081610e8b5790505b508152602001600067ffffffffffffffff811115610ec757610ec6613b79565b5b604051908082528060200260200182016040528015610f0057816020015b610eed613155565b815260200190600190039081610ee55790505b50815260200183815260200182815250935080518251610f20919061477d565b92506000610f2d85611cd1565b9050610f5b81600560009054906101000a900473ffffffffffffffffffffffffffffffffffffffff16611d36565b9550610f71600760000160000154878585611e8f565b5050506110db565b600080610fd9600067ffffffffffffffff811115610f9a57610f99613b79565b5b604051908082528060200260200182016040528015610fd357816020015b610fc0613155565b815260200190600190039081610fb85790505b50611829565b91509150600080610fea8989612006565b915091506040518060c001604052808a81526020016040518060400160405280600281526020017f307800000000000000000000000000000000000000000000000000000000000081525081526020018581526020018481526020018381526020018281525095508251845182518451611064919061477d565b61106e919061477d565b611078919061477d565b9450600061108587611cd1565b90506110b381600560009054906101000a900473ffffffffffffffffffffffffffffffffffffffff16611d36565b97506110c9600760000160000154898787611e8f565b6110d58a898585611e8f565b50505050505b60076003015481111561112557806040517faebcd8a300000000000000000000000000000000000000000000000000000000815260040161111c9190614636565b60405180910390fd5b6000826040516020016111389190614a38565b604051602081830303815290604052905060006040518060400160405280868152602001604051806040016040528060028081111561117a57611179613849565b5b81526020018581525081525090806001815401808255809150506001900390600052602060002090600302016000909190919091506000820151816000015560208201518160010160008201518160000160006101000a81548160ff021916908360028111156111ed576111ec613849565b5b021790555060208201518160010190816112079190613db4565b505050505050509250929050565b600061121f613184565b60008061127f600067ffffffffffffffff8111156112405761123f613b79565b5b60405190808252806020026020018201604052801561127957816020015b611266613155565b81526020019060019003908161125e5790505b50611829565b91509150601860ff1685602001515111156112d6578460200151516040517f2bb7f58a0000000000000000000000000000000000000000000000000000000081526004016112cd9190614636565b60405180910390fd5b60405180608001604052808681526020016040518060400160405280600281526020017f307800000000000000000000000000000000000000000000000000000000000081525081526020018381526020018281525092506000611339846123ee565b905061136781600560009054906101000a900473ffffffffffffffffffffffffffffffffffffffff16611d36565b94506007600301548251845161137d919061477d565b11156113cd5781518351611391919061477d565b6040517faebcd8a30000000000000000000000000000000000000000000000000000000081526004016113c49190614636565b60405180910390fd5b6113e1600760000160000154868585611e8f565b6000846040516020016113f49190614bbf565b60405160208183030381529060405290506000604051806040016040528088815260200160405180604001604052806000600281111561143757611436613849565b5b81526020018581525081525090806001815401808255809150506001900390600052602060002090600302016000909190919091506000820151816000015560208201518160010160008201518160000160006101000a81548160ff021916908360028111156114aa576114a9613849565b5b021790555060208201518160010190816114c49190613db4565b505050505050505050915091565b60006114dc6131b2565b600760000160000154840361151d576040517f9956af0000000000000000000000000000000000000000000000000000000000815260040160405180910390fd5b60008061157d600067ffffffffffffffff81111561153e5761153d613b79565b5b60405190808252806020026020018201604052801561157757816020015b611564613155565b81526020019060019003908161155c5790505b50611829565b915091506040518060a001604052808781526020016040518060400160405280600281526020017f3078000000000000000000000000000000000000000000000000000000000000815250815260200186815260200183815260200182815250925060006115ea84612559565b905061161881600560009054906101000a900473ffffffffffffffffffffffffffffffffffffffff16611d36565b9450600760030154825184518851611630919061477d565b61163a919061477d565b111561169657815183518751611650919061477d565b61165a919061477d565b6040517faebcd8a300000000000000000000000000000000000000000000000000000000815260040161168d9190614636565b60405180910390fd5b6116aa600760000160000154868585611e8f565b61170a8786600067ffffffffffffffff8111156116ca576116c9613b79565b5b60405190808252806020026020018201604052801561170357816020015b6116f061310b565b8152602001906001900390816116e85790505b5089611e8f565b60008460405160200161171d9190614c6c565b6040516020818303038152906040529050600060405180604001604052808881526020016040518060400160405280600160028111156117605761175f613849565b5b81526020018581525081525090806001815401808255809150506001900390600052602060002090600302016000909190919091506000820151816000015560208201518160010160008201518160000160006101000a81548160ff021916908360028111156117d3576117d2613849565b5b021790555060208201518160010190816117ed9190613db4565b5050505050505050509250929050565b600061180b826000016125b0565b9050919050565b600061182183600001836125c1565b905092915050565b6060806000600760000160020160009054906101000a90046fffffffffffffffffffffffffffffffff16905060005b845181101561189a5784818151811061187457611873613e86565b5b6020026020010151602001518261188b9190614c8e565b91508080600101915050611858565b506000806000600460006007600001600001548152602001908152602001600020905060005b6118c982610cd8565b8110156119475760006118e58284610ced90919063ffffffff16565b9150508060800151846118f89190614c8e565b9350848061190590614735565b955050856fffffffffffffffffffffffffffffffff16846fffffffffffffffffffffffffffffffff16106119395750611947565b5080806001019150506118c0565b50836fffffffffffffffffffffffffffffffff16826fffffffffffffffffffffffffffffffff1610156119b9576007600001600001546040517ff200613b0000000000000000000000000000000000000000000000000000000081526004016119b091906133f1565b60405180910390fd5b8267ffffffffffffffff8111156119d3576119d2613b79565b5b604051908082528060200260200182016040528015611a0c57816020015b6119f961310b565b8152602001906001900390816119f15790505b50955060005b83811015611aab576000611a2f8284610ced90919063ffffffff16565b915050604051806080016040528082604001518152602001826060015167ffffffffffffffff16815260200182608001516fffffffffffffffffffffffffffffffff1681526020018260000151815250888381518110611a9257611a91613e86565b5b6020026020010181905250508080600101915050611a12565b50836fffffffffffffffffffffffffffffffff16826fffffffffffffffffffffffffffffffff161115611b9f5760028751611ae6919061477d565b67ffffffffffffffff811115611aff57611afe613b79565b5b604051908082528060200260200182016040528015611b3857816020015b611b25613155565b815260200190600190039081611b1d5790505b509450604051806040016040528060025481526020018584611b5a9190614cd2565b6fffffffffffffffffffffffffffffffff168152508560018951611b7e919061477d565b81518110611b8f57611b8e613e86565b5b6020026020010181905250611c03565b60018751611bad919061477d565b67ffffffffffffffff811115611bc657611bc5613b79565b5b604051908082528060200260200182016040528015611bff57816020015b611bec613155565b815260200190600190039081611be45790505b5094505b60005b8751811015611c5557878181518110611c2257611c21613e86565b5b6020026020010151868281518110611c3d57611c3c613e86565b5b60200260200101819052508080600101915050611c06565b5060405180604001604052806007600001600101548152602001600760000160020160009054906101000a90046fffffffffffffffffffffffffffffffff166fffffffffffffffffffffffffffffffff1681525085885181518110611cbd57611cbc613e86565b5b602002602001018190525050505050915091565b60608160000151611ce583604001516125ec565b611cf284606001516126c7565b611cff85608001516125ec565b611d0c8660a001516126c7565b604051602001611d20959493929190614d73565b6040516020818303038152906040529050919050565b600080611d4284612750565b905060008373ffffffffffffffffffffffffffffffffffffffff16631a10dabc8360046040518363ffffffff1660e01b8152600401611d82929190614ebb565b600060405180830381865afa158015611d9f573d6000803e3d6000fd5b505050506040513d6000823e3d601f19601f82011682018060405250810190611dc89190614fc3565b9050611dee81600081518110611de157611de0613e86565b5b6020026020010151612a8c565b611e1282600181518110611e0557611e04613e86565b5b6020026020010151612a8c565b611e3683600281518110611e2957611e28613e86565b5b6020026020010151612a8c565b611e5a84600381518110611e4d57611e4c613e86565b5b6020026020010151612a8c565b604051602001611e6d949392919061500c565b604051602081830303815290604052611e859061506f565b9250505092915050565b600060046000868152602001908152602001600020905060005b8351811015611ef257611ee3848281518110611ec857611ec7613e86565b5b60200260200101516000015183612b4c90919063ffffffff16565b50508080600101915050611ea9565b5060005b82518167ffffffffffffffff161015611ffe57600254838267ffffffffffffffff1681518110611f2957611f28613e86565b5b60200260200101516000015103611feb5760008582604051602001611f4f92919061510c565b604051602081830303815290604052805190602001209050611fe8816040518060a0016040528060025481526020018a81526020018981526020018567ffffffffffffffff168152602001878667ffffffffffffffff1681518110611fb757611fb6613e86565b5b6020026020010151602001516fffffffffffffffffffffffffffffffff1681525085612ca59092919063ffffffff16565b50505b8080611ff690615138565b915050611ef6565b505050505050565b6060806000805b845181101561204f5784818151811061202957612028613e86565b5b602002602001015160200151826120409190614c8e565b9150808060010191505061200d565b50600080600060046000898152602001908152602001600020905060005b61207682610cd8565b8110156120f45760006120928284610ced90919063ffffffff16565b9150508060800151846120a59190614c8e565b935084806120b290614735565b955050856fffffffffffffffffffffffffffffffff16846fffffffffffffffffffffffffffffffff16106120e657506120f4565b50808060010191505061206d565b50836fffffffffffffffffffffffffffffffff16826fffffffffffffffffffffffffffffffff16101561215e57876040517ff200613b00000000000000000000000000000000000000000000000000000000815260040161215591906133f1565b60405180910390fd5b8267ffffffffffffffff81111561217857612177613b79565b5b6040519080825280602002602001820160405280156121b157816020015b61219e61310b565b8152602001906001900390816121965790505b50955060005b838110156122505760006121d48284610ced90919063ffffffff16565b915050604051806080016040528082604001518152602001826060015167ffffffffffffffff16815260200182608001516fffffffffffffffffffffffffffffffff168152602001826000015181525088838151811061223757612236613e86565b5b60200260200101819052505080806001019150506121b7565b50836fffffffffffffffffffffffffffffffff16826fffffffffffffffffffffffffffffffff161115612338576001875161228b919061477d565b67ffffffffffffffff8111156122a4576122a3613b79565b5b6040519080825280602002602001820160405280156122dd57816020015b6122ca613155565b8152602001906001900390816122c25790505b5094506040518060400160405280600254815260200185846122ff9190614cd2565b6fffffffffffffffffffffffffffffffff168152508588518151811061232857612327613e86565b5b6020026020010181905250612390565b865167ffffffffffffffff81111561235357612352613b79565b5b60405190808252806020026020018201604052801561238c57816020015b612379613155565b8152602001906001900390816123715790505b5094505b60005b87518110156123e2578781815181106123af576123ae613e86565b5b60200260200101518682815181106123ca576123c9613e86565b5b60200260200101819052508080600101915050612393565b50505050509250929050565b6060600082600001516020015190506000601860ff1667ffffffffffffffff81111561241d5761241c613b79565b5b6040519080825280601f01601f19166020018201604052801561244f5781602001600182028036833780820191505090505b50905060005b82518110156124c95782818151811061247157612470613e86565b5b602001015160f81c60f81b82828151811061248f5761248e613e86565b5b60200101907effffffffffffffffffffffffffffffffffffffffffffffffffffffffffffff1916908160001a905350806001019050612455565b50836000015160000151818560000151604001516124ee876000015160600151612d6b565b6124ff886000015160800151612d6b565b612510896000015160a00151612d6b565b61251d8a604001516125ec565b61252a8b606001516126c7565b604051602001612541989796959493929190615189565b60405160208183030381529060405292505050919050565b6060816000015161256d83604001516126c7565b61257a84606001516125ec565b61258785608001516126c7565b60405160200161259a9493929190615203565b6040516020818303038152906040529050919050565b600081600001805490509050919050565b60008260000182815481106125d9576125d8613e86565b5b9060005260206000200154905092915050565b606060005b82518110156126c1578183828151811061260e5761260d613e86565b5b60200260200101516000015161264b8584815181106126305761262f613e86565b5b60200260200101516020015167ffffffffffffffff16612a8c565b85848151811061265e5761265d613e86565b5b6020026020010151606001516126918786815181106126805761267f613e86565b5b602002602001015160400151612d6b565b6040516020016126a5959493929190615245565b60405160208183030381529060405291508060010190506125f1565b50919050565b606060005b825181101561274a57818382815181106126e9576126e8613e86565b5b60200260200101516000015161271c85848151811061270b5761270a613e86565b5b602002602001015160200151612d6b565b60405160200161272e93929190615298565b60405160208183030381529060405291508060010190506126cc565b50919050565b606060006008835161276291906152fc565b9050600060088451612774919061532d565b905060008082116127cd578267ffffffffffffffff81111561279957612798613b79565b5b6040519080825280602002602001820160405280156127c75781602001602082028036833780820191505090505b50612823565b6001836127da919061477d565b67ffffffffffffffff8111156127f3576127f2613b79565b5b6040519080825280602002602001820160405280156128215781602001602082028036833780820191505090505b505b905060005b83811015612959576000600867ffffffffffffffff81111561284d5761284c613b79565b5b6040519080825280601f01601f19166020018201604052801561287f5781602001600182028036833780820191505090505b50905060005b600881101561291c57878160088561289d919061535e565b6128a7919061477d565b815181106128b8576128b7613e86565b5b602001015160f81c60f81b828260076128d191906153a0565b815181106128e2576128e1613e86565b5b60200101907effffffffffffffffffffffffffffffffffffffffffffffffffffffffffffff1916908160001a905350806001019050612885565b5060c0816129299061506f565b60001c901c83838151811061294157612940613e86565b5b60200260200101818152505050806001019050612828565b506000821115612a81576000600867ffffffffffffffff8111156129805761297f613b79565b5b6040519080825280601f01601f1916602001820160405280156129b25781602001600182028036833780820191505090505b50905060005b83811015612a4e5786816008876129cf919061535e565b6129d9919061477d565b815181106129ea576129e9613e86565b5b602001015160f81c60f81b82826007612a0391906153a0565b81518110612a1457612a13613e86565b5b60200101907effffffffffffffffffffffffffffffffffffffffffffffffffffffffffffff1916908160001a9053508060010190506129b8565b5060c081612a5b9061506f565b60001c901c828581518110612a7357612a72613e86565b5b602002602001018181525050505b809350505050919050565b60606000600867ffffffffffffffff811115612aab57612aaa613b79565b5b6040519080825280601f01601f191660200182016040528015612add5781602001600182028036833780820191505090505b50905060208101838152805160ff8160381c1660c01b60ff8260301c1660c81b1760ff8260281c1660d01b60ff8360201c1660d81b171760ff8260181c1660e01b60ff8360101c1660e81b1760ff8360081c1660f01b60ff841660f81b17171780835250505080915050919050565b6000612b5661305b565b60008460020160008581526020019081526020016000206040518060a00160405290816000820154815260200160018201548152602001600282015481526020016003820160009054906101000a900467ffffffffffffffff1667ffffffffffffffff1667ffffffffffffffff1681526020016003820160089054906101000a90046fffffffffffffffffffffffffffffffff166fffffffffffffffffffffffffffffffff166fffffffffffffffffffffffffffffffff16815250509050846002016000858152602001908152602001600020600080820160009055600182016000905560028201600090556003820160006101000a81549067ffffffffffffffff02191690556003820160086101000a8154906fffffffffffffffffffffffffffffffff02191690555050612c988486600001612e8690919063ffffffff16565b8192509250509250929050565b60008184600201600085815260200190815260200160002060008201518160000155602082015181600101556040820151816002015560608201518160030160006101000a81548167ffffffffffffffff021916908367ffffffffffffffff16021790555060808201518160030160086101000a8154816fffffffffffffffffffffffffffffffff02191690836fffffffffffffffffffffffffffffffff160217905550905050612d628385600001612e9d90919063ffffffff16565b90509392505050565b60606000601067ffffffffffffffff811115612d8a57612d89613b79565b5b6040519080825280601f01601f191660200182016040528015612dbc5781602001600182028036833780820191505090505b50905060208101838152805160ff8160381c1660c01b60ff8260301c1660c81b1760ff8260281c1660d01b60ff8360201c1660d81b171760ff8260181c1660e01b60ff8360101c1660e81b1760ff8360081c1660f01b60ff841660f81b17171760ff8260781c1660801b60ff8360701c1660881b1760ff8360681c1660901b60ff8460601c1660981b171760ff8360581c1660a01b60ff8460501c1660a81b1760ff8460481c1660b01b60ff8560401c1660b81b1717178117905080835250505080915050919050565b6000612e958360000183612eb4565b905092915050565b6000612eac8360000183612fc8565b905092915050565b60008083600101600084815260200190815260200160002054905060008114612fbc576000600182612ee691906153a0565b9050600060018660000180549050612efe91906153a0565b9050808214612f6d576000866000018281548110612f1f57612f1e613e86565b5b9060005260206000200154905080876000018481548110612f4357612f42613e86565b5b90600052602060002001819055508387600101600083815260200190815260200160002081905550505b85600001805480612f8157612f806153d4565b5b600190038181906000526020600020016000905590558560010160008681526020019081526020016000206000905560019350505050612fc2565b60009150505b92915050565b6000612fd48383613038565b61302d578260000182908060018154018082558091505060019003906000526020600020016000909190919091505582600001805490508360010160008481526020019081526020016000208190555060019050613032565b600090505b92915050565b600080836001016000848152602001908152602001600020541415905092915050565b6040518060a00160405280600080191681526020016000801916815260200160008019168152602001600067ffffffffffffffff16815260200160006fffffffffffffffffffffffffffffffff1681525090565b6040518060400160405280600080191681526020016130cc6131e4565b81525090565b6040518060c001604052806000801916815260200160608152602001606081526020016060815260200160608152602001606081525090565b604051806080016040528060008019168152602001600067ffffffffffffffff16815260200160006fffffffffffffffffffffffffffffffff168152602001600080191681525090565b60405180604001604052806000801916815260200160006fffffffffffffffffffffffffffffffff1681525090565b6040518060800160405280613197613210565b81526020016060815260200160608152602001606081525090565b6040518060a0016040528060008019168152602001606081526020016060815260200160608152602001606081525090565b60405180604001604052806000600281111561320357613202613849565b5b8152602001606081525090565b6040518060c00160405280600077ffffffffffffffffffffffffffffffffffffffffffffffff19168152602001606081526020016000801916815260200160006fffffffffffffffffffffffffffffffff16815260200160006fffffffffffffffffffffffffffffffff16815260200160006fffffffffffffffffffffffffffffffff1681525090565b6000604051905090565b600080fd5b600080fd5b6000819050919050565b6132c1816132ae565b81146132cc57600080fd5b50565b6000813590506132de816132b8565b92915050565b600381106132f157600080fd5b50565b600081359050613303816132e4565b92915050565b600080fd5b600080fd5b600080fd5b60008083601f84011261332e5761332d613309565b5b8235905067ffffffffffffffff81111561334b5761334a61330e565b5b60208301915083600182028301111561336757613366613313565b5b9250929050565b60008060008060608587031215613388576133876132a4565b5b6000613396878288016132cf565b94505060206133a7878288016132f4565b935050604085013567ffffffffffffffff8111156133c8576133c76132a9565b5b6133d487828801613318565b925092505092959194509250565b6133eb816132ae565b82525050565b600060208201905061340660008301846133e2565b92915050565b600060208284031215613422576134216132a4565b5b6000613430848285016132cf565b91505092915050565b600081519050919050565b600082825260208201905092915050565b6000819050602082019050919050565b61346e816132ae565b82525050565b600067ffffffffffffffff82169050919050565b61349181613474565b82525050565b60006fffffffffffffffffffffffffffffffff82169050919050565b6134bc81613497565b82525050565b60a0820160008201516134d86000850182613465565b5060208201516134eb6020850182613465565b5060408201516134fe6040850182613465565b5060608201516135116060850182613488565b50608082015161352460808501826134b3565b50505050565b600061353683836134c2565b60a08301905092915050565b6000602082019050919050565b600061355a82613439565b6135648185613444565b935061356f83613455565b8060005b838110156135a0578151613587888261352a565b975061359283613542565b925050600181019050613573565b5085935050505092915050565b600060208201905081810360008301526135c7818461354f565b905092915050565b600080fd5b600060e082840312156135ea576135e96135cf565b5b81905092915050565b600060e08284031215613609576136086132a4565b5b6000613617848285016135d4565b91505092915050565b60008083601f84011261363657613635613309565b5b8235905067ffffffffffffffff8111156136535761365261330e565b5b60208301915083604082028301111561366f5761366e613313565b5b9250929050565b60008060006040848603121561368f5761368e6132a4565b5b600061369d868287016132cf565b935050602084013567ffffffffffffffff8111156136be576136bd6132a9565b5b6136ca86828701613620565b92509250509250925092565b6000604082840312156136ec576136eb6135cf565b5b81905092915050565b60008083601f84011261370b5761370a613309565b5b8235905067ffffffffffffffff8111156137285761372761330e565b5b60208301915083602082028301111561374457613743613313565b5b9250929050565b60008060008060008060006080888a03121561376a576137696132a4565b5b600088013567ffffffffffffffff811115613788576137876132a9565b5b6137948a828b016136d6565b975050602088013567ffffffffffffffff8111156137b5576137b46132a9565b5b6137c18a828b016136f5565b9650965050604088013567ffffffffffffffff8111156137e4576137e36132a9565b5b6137f08a828b01613318565b9450945050606088013567ffffffffffffffff811115613813576138126132a9565b5b61381f8a828b01613318565b925092505092959891949750929550565b6000819050919050565b61384381613830565b82525050565b7f4e487b7100000000000000000000000000000000000000000000000000000000600052602160045260246000fd5b6003811061388957613888613849565b5b50565b600081905061389a82613878565b919050565b60006138aa8261388c565b9050919050565b6138ba8161389f565b82525050565b600081519050919050565b600082825260208201905092915050565b60005b838110156138fa5780820151818401526020810190506138df565b60008484015250505050565b6000601f19601f8301169050919050565b6000613922826138c0565b61392c81856138cb565b935061393c8185602086016138dc565b61394581613906565b840191505092915050565b600060408301600083015161396860008601826138b1565b50602083015184820360208601526139808282613917565b9150508091505092915050565b60006040830160008301516139a56000860182613465565b50602083015184820360208601526139bd8282613950565b9150508091505092915050565b60006040820190506139df600083018561383a565b81810360208301526139f1818461398d565b90509392505050565b600060c08284031215613a1057613a0f6135cf565b5b81905092915050565b600060208284031215613a2f57613a2e6132a4565b5b600082013567ffffffffffffffff811115613a4d57613a4c6132a9565b5b613a59848285016139fa565b91505092915050565b613a6b81613830565b8114613a7657600080fd5b50565b600081359050613a8881613a62565b92915050565b600080600060408486031215613aa757613aa66132a4565b5b6000613ab586828701613a79565b935050602084013567ffffffffffffffff811115613ad657613ad56132a9565b5b613ae286828701613318565b92509250509250925092565b600073ffffffffffffffffffffffffffffffffffffffff82169050919050565b6000613b1982613aee565b9050919050565b613b2981613b0e565b8114613b3457600080fd5b50565b600081359050613b4681613b20565b92915050565b600060208284031215613b6257613b616132a4565b5b6000613b7084828501613b37565b91505092915050565b7f4e487b7100000000000000000000000000000000000000000000000000000000600052604160045260246000fd5b7f4e487b7100000000000000000000000000000000000000000000000000000000600052602260045260246000fd5b60006002820490506001821680613bef57607f821691505b602082108103613c0257613c01613ba8565b5b50919050565b60008190508160005260206000209050919050565b60006020601f8301049050919050565b600082821b905092915050565b600060088302613c6a7fffffffffffffffffffffffffffffffffffffffffffffffffffffffffffffffff82613c2d565b613c748683613c2d565b95508019841693508086168417925050509392505050565b6000819050919050565b6000613cb1613cac613ca784613830565b613c8c565b613830565b9050919050565b6000819050919050565b613ccb83613c96565b613cdf613cd782613cb8565b848454613c3a565b825550505050565b600090565b613cf4613ce7565b613cff818484613cc2565b505050565b5b81811015613d2357613d18600082613cec565b600181019050613d05565b5050565b601f821115613d6857613d3981613c08565b613d4284613c1d565b81016020851015613d51578190505b613d65613d5d85613c1d565b830182613d04565b50505b505050565b600082821c905092915050565b6000613d8b60001984600802613d6d565b1980831691505092915050565b6000613da48383613d7a565b9150826002028217905092915050565b613dbd826138c0565b67ffffffffffffffff811115613dd657613dd5613b79565b5b613de08254613bd7565b613deb828285613d27565b600060209050601f831160018114613e1e5760008415613e0c578287015190505b613e168582613d98565b865550613e7e565b601f198416613e2c86613c08565b60005b82811015613e5457848901518255600182019150602085019450602081019050613e2f565b86831015613e715784890151613e6d601f891682613d7a565b8355505b6001600288020188555050505b505050505050565b7f4e487b7100000000000000000000000000000000000000000000000000000000600052603260045260246000fd5b60008135613ec2816132b8565b80915050919050565b60008160001b9050919050565b60007fffffffffffffffffffffffffffffffffffffffffffffffffffffffffffffffff613f0484613ecb565b9350801983169250808416831791505092915050565b6000613f25826132ae565b9050919050565b60008160001c9050919050565b6000613f4482613f2c565b9050919050565b613f5482613f1a565b613f67613f6082613f39565b8354613ed8565b8255505050565b613f7781613497565b8114613f8257600080fd5b50565b60008135613f9281613f6e565b80915050919050565b60006fffffffffffffffffffffffffffffffff613fb784613ecb565b9350801983169250808416831791505092915050565b6000613fe8613fe3613fde84613497565b613c8c565b613497565b9050919050565b6000819050919050565b61400282613fcd565b61401561400e82613fef565b8354613f9b565b8255505050565b60008101600083018061402e81613eb5565b905061403a8184613f4b565b50505060018101602083018061404f81613eb5565b905061405b8184613f4b565b50505060028101604083018061407081613f85565b905061407c8184613ff9565b5050505050565b61408d828261401c565b5050565b6000813561409e81613a62565b80915050919050565b6140b082613c96565b6140c36140bc82613cb8565b8354613ed8565b8255505050565b600060ff82169050919050565b6140e0816140ca565b81146140eb57600080fd5b50565b600081356140fb816140d7565b80915050919050565b600060ff61411184613ecb565b9350801983169250808416831791505092915050565b600061414261413d614138846140ca565b613c8c565b6140ca565b9050919050565b6000819050919050565b61415c82614127565b61416f61416882614149565b8354614104565b8255505050565b6000813561418381613b20565b80915050919050565b60008160081b9050919050565b600074ffffffffffffffffffffffffffffffffffffffff006141ba8461418c565b9350801983169250808416831791505092915050565b60006141eb6141e66141e184613aee565b613c8c565b613aee565b9050919050565b60006141fd826141d0565b9050919050565b600061420f826141f2565b9050919050565b6000819050919050565b61422982614204565b61423c61423582614216565b8354614199565b8255505050565b600073ffffffffffffffffffffffffffffffffffffffff61426384613ecb565b9350801983169250808416831791505092915050565b61428282614204565b61429561428e82614216565b8354614243565b8255505050565b6000810160008301806142af8184614083565b5050506003810160608301806142c481614091565b90506142d081846140a7565b5050506004810160808301806142e5816140ee565b90506142f18184614153565b5050506004810160a083018061430681614176565b90506143128184614220565b5050506005810160c083018061432781614176565b90506143338184614279565b5050505050565b614344828261429c565b5050565b600080fd5b61435682613906565b810181811067ffffffffffffffff8211171561437557614374613b79565b5b80604052505050565b600061438861329a565b9050614394828261434d565b919050565b600080fd5b6000813590506143ad81613f6e565b92915050565b6000604082840312156143c9576143c8614348565b5b6143d3604061437e565b905060006143e3848285016132cf565b60008301525060206143f78482850161439e565b60208301525092915050565b600060408284031215614419576144186132a4565b5b6000614427848285016143b3565b91505092915050565b60007fffffffffffffffff00000000000000000000000000000000000000000000000082169050919050565b61446581614430565b811461447057600080fd5b50565b6000813590506144828161445c565b92915050565b600080fd5b600067ffffffffffffffff8211156144a8576144a7613b79565b5b6144b182613906565b9050602081019050919050565b82818337600083830152505050565b60006144e06144db8461448d565b61437e565b9050828152602081018484840111156144fc576144fb614488565b5b6145078482856144be565b509392505050565b600082601f83011261452457614523613309565b5b81356145348482602086016144cd565b91505092915050565b600060c0828403121561455357614552614348565b5b61455d60c061437e565b9050600061456d84828501614473565b600083015250602082013567ffffffffffffffff81111561459157614590614399565b5b61459d8482850161450f565b60208301525060406145b1848285016132cf565b60408301525060606145c58482850161439e565b60608301525060806145d98482850161439e565b60808301525060a06145ed8482850161439e565b60a08301525092915050565b6000614605368361453d565b9050919050565b61461581613b0e565b82525050565b6000602082019050614630600083018461460c565b92915050565b600060208201905061464b600083018461383a565b92915050565b6000604082019050614666600083018561383a565b614673602083018461383a565b9392505050565b60006080830160008301516146926000860182613465565b5060208301516146a560208601826138b1565b50604083015184820360408601526146bd8282613917565b915050606083015184820360608601526146d78282613917565b9150508091505092915050565b600060208201905081810360008301526146fe818461467a565b905092915050565b7f4e487b7100000000000000000000000000000000000000000000000000000000600052601160045260246000fd5b600061474082613830565b91507fffffffffffffffffffffffffffffffffffffffffffffffffffffffffffffffff820361477257614771614706565b5b600182019050919050565b600061478882613830565b915061479383613830565b92508282019050808211156147ab576147aa614706565b5b92915050565b600081519050919050565b600082825260208201905092915050565b6000819050602082019050919050565b6080820160008201516147f36000850182613465565b5060208201516148066020850182613488565b50604082015161481960408501826134b3565b50606082015161482c6060850182613465565b50505050565b600061483e83836147dd565b60808301905092915050565b6000602082019050919050565b6000614862826147b1565b61486c81856147bc565b9350614877836147cd565b8060005b838110156148a857815161488f8882614832565b975061489a8361484a565b92505060018101905061487b565b5085935050505092915050565b600081519050919050565b600082825260208201905092915050565b6000819050602082019050919050565b6040820160008201516148f76000850182613465565b50602082015161490a60208501826134b3565b50505050565b600061491c83836148e1565b60408301905092915050565b6000602082019050919050565b6000614940826148b5565b61494a81856148c0565b9350614955836148d1565b8060005b8381101561498657815161496d8882614910565b975061497883614928565b925050600181019050614959565b5085935050505092915050565b600060c0830160008301516149ab6000860182613465565b50602083015184820360208601526149c38282613917565b915050604083015184820360408601526149dd8282614857565b915050606083015184820360608601526149f78282614935565b91505060808301518482036080860152614a118282614857565b91505060a083015184820360a0860152614a2b8282614935565b9150508091505092915050565b60006020820190508181036000830152614a528184614993565b905092915050565b614a6381614430565b82525050565b600081519050919050565b600082825260208201905092915050565b6000614a9082614a69565b614a9a8185614a74565b9350614aaa8185602086016138dc565b614ab381613906565b840191505092915050565b600060c083016000830151614ad66000860182614a5a565b5060208301518482036020860152614aee8282614a85565b9150506040830151614b036040860182613465565b506060830151614b1660608601826134b3565b506080830151614b2960808601826134b3565b5060a0830151614b3c60a08601826134b3565b508091505092915050565b60006080830160008301518482036000860152614b648282614abe565b91505060208301518482036020860152614b7e8282613917565b91505060408301518482036040860152614b988282614857565b91505060608301518482036060860152614bb28282614935565b9150508091505092915050565b60006020820190508181036000830152614bd98184614b47565b905092915050565b600060a083016000830151614bf96000860182613465565b5060208301518482036020860152614c118282613917565b91505060408301518482036040860152614c2b8282614935565b91505060608301518482036060860152614c458282614857565b91505060808301518482036080860152614c5f8282614935565b9150508091505092915050565b60006020820190508181036000830152614c868184614be1565b905092915050565b6000614c9982613497565b9150614ca483613497565b925082820190506fffffffffffffffffffffffffffffffff811115614ccc57614ccb614706565b5b92915050565b6000614cdd82613497565b9150614ce883613497565b925082820390506fffffffffffffffffffffffffffffffff811115614d1057614d0f614706565b5b92915050565b6000819050919050565b614d31614d2c826132ae565b614d16565b82525050565b600081905092915050565b6000614d4d826138c0565b614d578185614d37565b9350614d678185602086016138dc565b80840191505092915050565b6000614d7f8288614d20565b602082019150614d8f8287614d42565b9150614d9b8286614d42565b9150614da78285614d42565b9150614db38284614d42565b91508190509695505050505050565b600081519050919050565b600082825260208201905092915050565b6000819050602082019050919050565b614df781613830565b82525050565b6000614e098383614dee565b60208301905092915050565b6000602082019050919050565b6000614e2d82614dc2565b614e378185614dcd565b9350614e4283614dde565b8060005b83811015614e73578151614e5a8882614dfd565b9750614e6583614e15565b925050600181019050614e46565b5085935050505092915050565b6000819050919050565b6000614ea5614ea0614e9b84614e80565b613c8c565b613830565b9050919050565b614eb581614e8a565b82525050565b60006040820190508181036000830152614ed58185614e22565b9050614ee46020830184614eac565b9392505050565b600067ffffffffffffffff821115614f0657614f05613b79565b5b602082029050602081019050919050565b600081519050614f2681613a62565b92915050565b6000614f3f614f3a84614eeb565b61437e565b90508083825260208201905060208402830185811115614f6257614f61613313565b5b835b81811015614f8b5780614f778882614f17565b845260208401935050602081019050614f64565b5050509392505050565b600082601f830112614faa57614fa9613309565b5b8151614fba848260208601614f2c565b91505092915050565b600060208284031215614fd957614fd86132a4565b5b600082015167ffffffffffffffff811115614ff757614ff66132a9565b5b61500384828501614f95565b91505092915050565b60006150188287614d42565b91506150248286614d42565b91506150308285614d42565b915061503c8284614d42565b915081905095945050505050565b6000819050602082019050919050565b600061506682516132ae565b80915050919050565b600061507a826138c0565b826150848461504a565b905061508f8161505a565b925060208210156150cf576150ca7fffffffffffffffffffffffffffffffffffffffffffffffffffffffffffffffff83602003600802613c2d565b831692505b5050919050565b60008160c01b9050919050565b60006150ee826150d6565b9050919050565b61510661510182613474565b6150e3565b82525050565b60006151188285614d20565b60208201915061512882846150f5565b6008820191508190509392505050565b600061514382613474565b915067ffffffffffffffff820361515d5761515c614706565b5b600182019050919050565b6000819050919050565b61518361517e82614430565b615168565b82525050565b6000615195828b615172565b6008820191506151a5828a614d42565b91506151b18289614d20565b6020820191506151c18288614d42565b91506151cd8287614d42565b91506151d98286614d42565b91506151e58285614d42565b91506151f18284614d42565b91508190509998505050505050505050565b600061520f8287614d20565b60208201915061521f8286614d42565b915061522b8285614d42565b91506152378284614d42565b915081905095945050505050565b60006152518288614d42565b915061525d8287614d20565b60208201915061526d8286614d42565b91506152798285614d20565b6020820191506152898284614d42565b91508190509695505050505050565b60006152a48286614d42565b91506152b08285614d20565b6020820191506152c08284614d42565b9150819050949350505050565b7f4e487b7100000000000000000000000000000000000000000000000000000000600052601260045260246000fd5b600061530782613830565b915061531283613830565b925082615322576153216152cd565b5b828204905092915050565b600061533882613830565b915061534383613830565b925082615353576153526152cd565b5b828206905092915050565b600061536982613830565b915061537483613830565b925082820261538281613830565b9150828204841483151761539957615398614706565b5b5092915050565b60006153ab82613830565b91506153b683613830565b92508282039050818111156153ce576153cd614706565b5b92915050565b7f4e487b7100000000000000000000000000000000000000000000000000000000600052603160045260246000fdfea2646970667358221220cedfce01c191db32741add5c0e2481936f6038462606623bf9eb61e4080afe4264736f6c63430008180033",
  "linkReferences": {},
  "deployedLinkReferences": {}
}